{
  "_format": "hh-sol-artifact-1",
  "contractName": "MerklePay",
  "sourceName": "contracts/MerklePay.sol",
  "abi": [
    {
      "inputs": [
        {
          "internalType": "address",
          "name": "_owner",
          "type": "address"
        }
      ],
      "stateMutability": "nonpayable",
      "type": "constructor"
    },
    {
      "anonymous": false,
      "inputs": [
        {
          "indexed": true,
          "internalType": "address",
          "name": "user",
          "type": "address"
        },
        {
          "indexed": true,
          "internalType": "address",
          "name": "token",
          "type": "address"
        },
        {
          "indexed": true,
          "internalType": "uint256",
          "name": "cycle",
          "type": "uint256"
        },
        {
          "indexed": false,
          "internalType": "uint256",
          "name": "amount",
          "type": "uint256"
        }
      ],
      "name": "Claimed",
      "type": "event"
    },
    {
      "anonymous": false,
      "inputs": [
        {
          "indexed": true,
          "internalType": "address",
          "name": "previousOwner",
          "type": "address"
        },
        {
          "indexed": true,
          "internalType": "address",
          "name": "newOwner",
          "type": "address"
        }
      ],
      "name": "OwnershipTransferred",
      "type": "event"
    },
    {
      "anonymous": false,
      "inputs": [
        {
          "indexed": true,
          "internalType": "uint256",
          "name": "cycle",
          "type": "uint256"
        },
        {
          "indexed": true,
          "internalType": "bytes32",
          "name": "root",
          "type": "bytes32"
        },
        {
          "indexed": true,
          "internalType": "bytes32",
          "name": "contentHash",
          "type": "bytes32"
        },
        {
          "indexed": false,
          "internalType": "uint256",
          "name": "blockTimestamp",
          "type": "uint256"
        },
        {
          "indexed": false,
          "internalType": "uint256",
          "name": "blockNumber",
          "type": "uint256"
        }
      ],
      "name": "RootPublished",
      "type": "event"
    },
    {
      "inputs": [
        {
          "internalType": "address[]",
          "name": "tokens",
          "type": "address[]"
        },
        {
          "internalType": "uint256[]",
          "name": "cumulativeAmounts",
          "type": "uint256[]"
        },
        {
          "internalType": "uint256",
          "name": "cycle",
          "type": "uint256"
        },
        {
          "internalType": "bytes32[]",
          "name": "merkleProof",
          "type": "bytes32[]"
        },
        {
          "internalType": "uint256[]",
          "name": "amountsToClaim",
          "type": "uint256[]"
        }
      ],
      "name": "claim",
      "outputs": [],
      "stateMutability": "nonpayable",
      "type": "function"
    },
    {
      "inputs": [
        {
          "internalType": "address",
          "name": "",
          "type": "address"
        },
        {
          "internalType": "address",
          "name": "",
          "type": "address"
        }
      ],
      "name": "claimed",
      "outputs": [
        {
          "internalType": "uint256",
          "name": "",
          "type": "uint256"
        }
      ],
      "stateMutability": "view",
      "type": "function"
    },
    {
      "inputs": [
        {
          "internalType": "address",
          "name": "user",
          "type": "address"
        },
        {
          "internalType": "address[]",
          "name": "tokens",
          "type": "address[]"
        },
        {
          "internalType": "uint256[]",
          "name": "cumulativeAmounts",
          "type": "uint256[]"
        }
      ],
      "name": "getClaimableFor",
      "outputs": [
        {
          "internalType": "address[]",
          "name": "",
          "type": "address[]"
        },
        {
          "internalType": "uint256[]",
          "name": "",
          "type": "uint256[]"
        }
      ],
      "stateMutability": "view",
      "type": "function"
    },
    {
      "inputs": [
        {
          "internalType": "address",
          "name": "user",
          "type": "address"
        },
        {
          "internalType": "address[]",
          "name": "tokens",
          "type": "address[]"
        }
      ],
      "name": "getClaimedFor",
      "outputs": [
        {
          "internalType": "address[]",
          "name": "",
          "type": "address[]"
        },
        {
          "internalType": "uint256[]",
          "name": "",
          "type": "uint256[]"
        }
      ],
      "stateMutability": "view",
      "type": "function"
    },
    {
      "inputs": [
        {
          "internalType": "uint256",
          "name": "cycle",
          "type": "uint256"
        }
      ],
      "name": "getMerkleRootFor",
      "outputs": [
        {
          "internalType": "bytes32",
          "name": "",
          "type": "bytes32"
        }
      ],
      "stateMutability": "view",
      "type": "function"
    },
    {
      "inputs": [
        {
          "internalType": "address",
          "name": "user",
          "type": "address"
        },
        {
          "internalType": "address[]",
          "name": "tokens",
          "type": "address[]"
        },
        {
          "internalType": "uint256[]",
          "name": "cumulativeAmounts",
          "type": "uint256[]"
        }
      ],
      "name": "isClaimAvailableFor",
      "outputs": [
        {
          "internalType": "bool",
          "name": "",
          "type": "bool"
        }
      ],
      "stateMutability": "view",
      "type": "function"
    },
    {
      "inputs": [],
      "name": "merkleData",
      "outputs": [
        {
          "internalType": "uint32",
          "name": "cycle",
          "type": "uint32"
        },
        {
          "internalType": "bytes32",
          "name": "root",
          "type": "bytes32"
        },
        {
          "internalType": "bytes32",
          "name": "contentHash",
          "type": "bytes32"
        },
        {
          "internalType": "uint32",
          "name": "blockTimestamp",
          "type": "uint32"
        },
        {
          "internalType": "uint32",
          "name": "blockNumber",
          "type": "uint32"
        }
      ],
      "stateMutability": "view",
      "type": "function"
    },
    {
      "inputs": [],
      "name": "owner",
      "outputs": [
        {
          "internalType": "address",
          "name": "",
          "type": "address"
        }
      ],
      "stateMutability": "view",
      "type": "function"
    },
    {
      "inputs": [
        {
          "internalType": "uint32",
          "name": "cycle",
          "type": "uint32"
        },
        {
          "internalType": "bytes32",
          "name": "root",
          "type": "bytes32"
        },
        {
          "internalType": "bytes32",
          "name": "contentHash",
          "type": "bytes32"
        },
        {
          "internalType": "uint32",
          "name": "blockNumber",
          "type": "uint32"
        },
        {
          "internalType": "uint32",
          "name": "blockTimestamp",
          "type": "uint32"
        }
      ],
      "name": "publishRoot",
      "outputs": [],
      "stateMutability": "nonpayable",
      "type": "function"
    },
    {
      "inputs": [],
      "name": "renounceOwnership",
      "outputs": [],
      "stateMutability": "nonpayable",
      "type": "function"
    },
    {
      "inputs": [
        {
          "internalType": "address",
          "name": "",
          "type": "address"
        }
      ],
      "name": "totalClaimed",
      "outputs": [
        {
          "internalType": "uint256",
          "name": "",
          "type": "uint256"
        }
      ],
      "stateMutability": "view",
      "type": "function"
    },
    {
      "inputs": [
        {
          "internalType": "address",
          "name": "newOwner",
          "type": "address"
        }
      ],
      "name": "transferOwnership",
      "outputs": [],
      "stateMutability": "nonpayable",
      "type": "function"
    }
  ],
  "bytecode": "0x60806040523480156200001157600080fd5b50604051620019c8380380620019c8833981810160405260208110156200003757600080fd5b505160006200004562000090565b600080546001600160a01b0319166001600160a01b038316908117825560405192935091600080516020620019a8833981519152908290a350620000898162000094565b50620001ad565b3390565b6200009e62000090565b6001600160a01b0316620000b16200019e565b6001600160a01b0316146200010d576040805162461bcd60e51b815260206004820181905260248201527f4f776e61626c653a2063616c6c6572206973206e6f7420746865206f776e6572604482015290519081900360640190fd5b6001600160a01b038116620001545760405162461bcd60e51b8152600401808060200182810382526026815260200180620019826026913960400191505060405180910390fd5b600080546040516001600160a01b0380851693921691600080516020620019a883398151915291a3600080546001600160a01b0319166001600160a01b0392909216919091179055565b6000546001600160a01b031690565b6117c580620001bd6000396000f3fe608060405234801561001057600080fd5b50600436106100b45760003560e01c8063b366933d11610071578063b366933d146103f0578063bbb07fdc14610431578063cc287f3014610472578063ef5d9ae8146105a5578063f2fde38b146105cb578063ffa48e6e146105f1576100b4565b80630c9cbf0e146100b957806344bab5df146100f9578063715018a61461025d57806379ab554b146102655780638da5cb5b14610282578063a2fcfd68146102a6575b600080fd5b6100e7600480360360408110156100cf57600080fd5b506001600160a01b0381358116916020013516610738565b60408051918252519081900360200190f35b61025b600480360360a081101561010f57600080fd5b810190602081018135600160201b81111561012957600080fd5b82018360208201111561013b57600080fd5b803590602001918460208302840111600160201b8311171561015c57600080fd5b919390929091602081019035600160201b81111561017957600080fd5b82018360208201111561018b57600080fd5b803590602001918460208302840111600160201b831117156101ac57600080fd5b91939092823592604081019060200135600160201b8111156101cd57600080fd5b8201836020820111156101df57600080fd5b803590602001918460208302840111600160201b8311171561020057600080fd5b919390929091602081019035600160201b81111561021d57600080fd5b82018360208201111561022f57600080fd5b803590602001918460208302840111600160201b8311171561025057600080fd5b509092509050610755565b005b61025b610822565b6100e76004803603602081101561027b57600080fd5b50356108e0565b61028a6108f2565b604080516001600160a01b039092168252519081900360200190f35b610357600480360360408110156102bc57600080fd5b6001600160a01b038235169190810190604081016020820135600160201b8111156102e657600080fd5b8201836020820111156102f857600080fd5b803590602001918460208302840111600160201b8311171561031957600080fd5b919080806020026020016040519081016040528093929190818152602001838360200280828437600092019190915250929550610901945050505050565b604051808060200180602001838103835285818151815260200191508051906020019060200280838360005b8381101561039b578181015183820152602001610383565b50505050905001838103825284818151815260200191508051906020019060200280838360005b838110156103da5781810151838201526020016103c2565b5050505090500194505050505060405180910390f35b6103f86109d2565b6040805163ffffffff96871681526020810195909552848101939093529084166060840152909216608082015290519081900360a00190f35b61025b600480360360a081101561044757600080fd5b5063ffffffff81358116916020810135916040820135916060810135821691608090910135166109f6565b6103576004803603606081101561048857600080fd5b6001600160a01b038235169190810190604081016020820135600160201b8111156104b257600080fd5b8201836020820111156104c457600080fd5b803590602001918460208302840111600160201b831117156104e557600080fd5b9190808060200260200160405190810160405280939291908181526020018383602002808284376000920191909152509295949360208101935035915050600160201b81111561053457600080fd5b82018360208201111561054657600080fd5b803590602001918460208302840111600160201b8311171561056757600080fd5b919080806020026020016040519081016040528093929190818152602001838360200280828437600092019190915250929550610d1a945050505050565b6100e7600480360360208110156105bb57600080fd5b50356001600160a01b0316610ddc565b61025b600480360360208110156105e157600080fd5b50356001600160a01b0316610dee565b6107246004803603606081101561060757600080fd5b6001600160a01b038235169190810190604081016020820135600160201b81111561063157600080fd5b82018360208201111561064357600080fd5b803590602001918460208302840111600160201b8311171561066457600080fd5b9190808060200260200160405190810160405280939291908181526020018383602002808284376000920191909152509295949360208101935035915050600160201b8111156106b357600080fd5b8201836020820111156106c557600080fd5b803590602001918460208302840111600160201b831117156106e657600080fd5b919080806020026020016040519081016040528093929190818152602001838360200280828437600092019190915250929550610f02945050505050565b604080519115158252519081900360200190f35b600560209081526000928352604080842090915290825290205481565b61076489898989898989610f9a565b6000805b898110156107ce576107bc33888d8d8581811061078157fe5b905060200201356001600160a01b03168c8c8681811061079d57fe5b905060200201358888878181106107b057fe5b905060200201356110c9565b156107c657600191505b600101610768565b5080610816576040805162461bcd60e51b81526020600482015260126024820152714e6f20746f6b656e7320746f20636c61696d60701b604482015290519081900360640190fd5b50505050505050505050565b61082a611206565b6001600160a01b031661083b6108f2565b6001600160a01b031614610896576040805162461bcd60e51b815260206004820181905260248201527f4f776e61626c653a2063616c6c6572206973206e6f7420746865206f776e6572604482015290519081900360640190fd5b600080546040516001600160a01b03909116907f8be0079c531659141344cd1fd0a4f28419497f9722a3daafe3b4186f6b6457e0908390a3600080546001600160a01b0319169055565b60009081526007602052604090205490565b6000546001600160a01b031690565b6060806000835167ffffffffffffffff8111801561091e57600080fd5b50604051908082528060200260200182016040528015610948578160200160208202803683370190505b50905060005b84518110156109c8576001600160a01b0386166000908152600560205260408120865190919087908490811061098057fe5b60200260200101516001600160a01b03166001600160a01b03168152602001908152602001600020548282815181106109b557fe5b602090810291909101015260010161094e565b5092949293505050565b60015460025460035460045463ffffffff9384169381811691600160201b90041685565b6109fe611206565b6001600160a01b0316610a0f6108f2565b6001600160a01b031614610a6a576040805162461bcd60e51b815260206004820181905260248201527f4f776e61626c653a2063616c6c6572206973206e6f7420746865206f776e6572604482015290519081900360640190fd5b60015463ffffffff808716911611610abb576040805162461bcd60e51b815260206004820152600f60248201526e496e636f7272656374206379636c6560881b604482015290519081900360640190fd5b60045463ffffffff808316911610610b1a576040805162461bcd60e51b815260206004820152601e60248201527f626c6f636b54696d657374616d70206f6c646572207468616e206c6173740000604482015290519081900360640190fd5b60045463ffffffff808316911610610b79576040805162461bcd60e51b815260206004820152601e60248201527f626c6f636b54696d657374616d70206f6c646572207468616e206c6173740000604482015290519081900360640190fd5b60045463ffffffff808416600160201b9092041610610bdf576040805162461bcd60e51b815260206004820152601b60248201527f626c6f636b4e756d626572206f6c646572207468616e206c6173740000000000604482015290519081900360640190fd5b601e43038263ffffffff1610610c34576040805162461bcd60e51b8152602060048201526015602482015274213637b1b590373ab6b132b9103a37b79039b7b7b760591b604482015290519081900360640190fd5b61018642038163ffffffff1610610c87576040805162461bcd60e51b81526020600482015260126024820152712a34b6b2b9ba30b6b8103a37b79039b7b7b760711b604482015290519081900360640190fd5b6001805463ffffffff1990811663ffffffff888116918217909355600287905560038690556004805467ffffffff000000001916600160201b8786169081029190911790931693851693841790556040805193845260208401929092528151869388937f5286d3dfac7998a23b4553cb3d8f768ff449e8b62c5594f627de34f6a060807192918290030190a45050505050565b6060806000845167ffffffffffffffff81118015610d3757600080fd5b50604051908082528060200260200182016040528015610d61578160200160208202803683370190505b50905060005b8551811015610dd157610db2610d9088888481518110610d8357fe5b602002602001015161120a565b868381518110610d9c57fe5b602002602001015161123590919063ffffffff16565b828281518110610dbe57fe5b6020908102919091010152600101610d67565b509395939450505050565b60066020526000908152604090205481565b610df6611206565b6001600160a01b0316610e076108f2565b6001600160a01b031614610e62576040805162461bcd60e51b815260206004820181905260248201527f4f776e61626c653a2063616c6c6572206973206e6f7420746865206f776e6572604482015290519081900360640190fd5b6001600160a01b038116610ea75760405162461bcd60e51b815260040180806020018281038252602681526020018061171a6026913960400191505060405180910390fd5b600080546040516001600160a01b03808516939216917f8be0079c531659141344cd1fd0a4f28419497f9722a3daafe3b4186f6b6457e091a3600080546001600160a01b0319166001600160a01b0392909216919091179055565b6000805b8351811015610f8d576001600160a01b03851660009081526005602052604081208551610f7191908390889086908110610f3c57fe5b60200260200101516001600160a01b03166001600160a01b0316815260200190815260200160002054858481518110610d9c57fe5b90508015610f8457600192505050610f93565b50600101610f06565b50600090505b9392505050565b600033848989898960405160200180876001600160a01b0316815260200186815260200180602001806020018381038352878782818152602001925060200280828437600083820152601f01601f19169091018481038352858152602090810191508690860280828437600081840152601f19601f8201169050808301925050509850505050505050505060405160208183030381529060405280519060200120905061107e838380806020026020016040519081016040528093929190818152602001838360200280828437600092019190915250506002549150849050611292565b6110bf576040805162461bcd60e51b815260206004820152600d60248201526c24b73b30b634b210383937b7b360991b604482015290519081900360640190fd5b5050505050505050565b6000806110d6878661120a565b905060006110e48583611235565b90508084111561112d576040805162461bcd60e51b815260206004820152600f60248201526e45786365737369766520636c61696d60881b604482015290519081900360640190fd5b8061113d576000925050506111fd565b6000611149838661133b565b9050611156898883611395565b858111156111955760405162461bcd60e51b81526004018080602001828103825260348152602001806116e66034913960400191505060405180910390fd5b6111a96001600160a01b0388168a876113c1565b87876001600160a01b03168a6001600160a01b03167f2f6639d24651730c7bf57c95ddbf96d66d11477e4ec626876f92c22e5f365e68886040518082815260200191505060405180910390a4600193505050505b95945050505050565b3390565b6001600160a01b03918216600090815260056020908152604080832093909416825291909152205490565b60008282111561128c576040805162461bcd60e51b815260206004820152601e60248201527f536166654d6174683a207375627472616374696f6e206f766572666c6f770000604482015290519081900360640190fd5b50900390565b600081815b85518110156113305760008682815181106112ae57fe5b602002602001015190508083116112f55782816040516020018083815260200182815260200192505050604051602081830303815290604052805190602001209250611327565b808360405160200180838152602001828152602001925050506040516020818303038152906040528051906020012092505b50600101611297565b509092149392505050565b600082820183811015610f93576040805162461bcd60e51b815260206004820152601b60248201527f536166654d6174683a206164646974696f6e206f766572666c6f770000000000604482015290519081900360640190fd5b6001600160a01b0392831660009081526005602090815260408083209490951682529290925291902055565b604080516001600160a01b038416602482015260448082018490528251808303909101815260649091019091526020810180516001600160e01b031663a9059cbb60e01b179052611413908490611418565b505050565b600061146d826040518060400160405280602081526020017f5361666545524332303a206c6f772d6c6576656c2063616c6c206661696c6564815250856001600160a01b03166114c99092919063ffffffff16565b8051909150156114135780806020019051602081101561148c57600080fd5b50516114135760405162461bcd60e51b815260040180806020018281038252602a815260200180611766602a913960400191505060405180910390fd5b60606114d884846000856114e0565b949350505050565b6060824710156115215760405162461bcd60e51b81526004018080602001828103825260268152602001806117406026913960400191505060405180910390fd5b61152a8561163b565b61157b576040805162461bcd60e51b815260206004820152601d60248201527f416464726573733a2063616c6c20746f206e6f6e2d636f6e7472616374000000604482015290519081900360640190fd5b600080866001600160a01b031685876040518082805190602001908083835b602083106115b95780518252601f19909201916020918201910161159a565b6001836020036101000a03801982511681845116808217855250505050505090500191505060006040518083038185875af1925050503d806000811461161b576040519150601f19603f3d011682016040523d82523d6000602084013e611620565b606091505b5091509150611630828286611641565b979650505050505050565b3b151590565b60608315611650575081610f93565b8251156116605782518084602001fd5b8160405162461bcd60e51b81526004018080602001828103825283818151815260200191508051906020019080838360005b838110156116aa578181015183820152602001611692565b50505050905090810190601f1680156116d75780820380516001836020036101000a031916815260200191505b509250505060405180910390fdfe496e76617269616e743a2063756d756c617469766520636c61696d6564203e2063756d756c617469766520636c61696d61626c654f776e61626c653a206e6577206f776e657220697320746865207a65726f2061646472657373416464726573733a20696e73756666696369656e742062616c616e636520666f722063616c6c5361666545524332303a204552433230206f7065726174696f6e20646964206e6f742073756363656564a264697066735822122012158d2d8bcf38b756e2e4c4e82778e46ed37bef994a721b516226c2d647b05464736f6c634300070600334f776e61626c653a206e6577206f776e657220697320746865207a65726f20616464726573738be0079c531659141344cd1fd0a4f28419497f9722a3daafe3b4186f6b6457e0",
  "linkReferences": {},
  "deployedLinkReferences": {}
}